:10000000008000109D3B0000CD3B0000CF3B000076
:10001000D13B0000D33B0000D53B000000000000B6
:10002000000000000000000000000000D73B0000BE
:10003000D93B000000000000DB3B0000DD3B00007E
:10004000DF3B0000D5060000DF3B0000DF3B000087
:10005000DF3B0000DF3B0000DF3B0000DF3B000038
:10006000DF3B0000DF3B0000DF3B0000DF3B000028
:10007000DF3B0000DF3B0000DF3B0000DF3B000018
:10008000DF3B0000DF3B0000DF3B0000DF3B000008
:10009000DF3B0000B9060000DF3B0000DF3B000053
:1000A000DF3B0000DF3B0000DF3B0000DF3B0000E8
:1000B000DF3B0000DF3B0000DF3B00008906000063
:1000C000DF3B0000DF3B0000DF3B000010B5054CCC
:1000D000237833B9044B13B10448AFF300800123F4
:1000E000237010BD9C01001000000000B0640000EF
:1000F000084B10B51BB108480849AFF30080084809
:10010000036803B910BD074B002BFBD0BDE81040BE
:10011000184700BF00000000B0640000A0010010FC
:100120009C010010000000000D4B10B480220D4C0B
:1001300040F04000DA61E3680A4A9B07FBD51446A9
:100140009060E368074A9807FBD510469160C36842
:10015000DB06FCD4024B80229A615DF8044B7047A9
:1001600040C0092000800840174B80221749DA61FF
:10017000CB68164A9B07FBD511469060CB68134AA3
:10018000D806FBD4D3685B0707D51146D368580758
:10019000FCD58B68CB685B07F8D40C49CB680B4A5D
:1001A0009807FBD5114600239360CB68DA06FCD490
:1001B0000649CB68054A5B07FBD59068024B802255
:1001C000C0B29A61704700BF40C00920008008405B
:1001D0002B4B80222B49DA61CB682A4A9B07FBD53F
:1001E00011469060CB68274AD806FBD4D3685B07DA
:1001F00007D51146D3685807FCD58B68CB685B07D9
:10020000F8D42049CB681F4A9807FBD51146002334
:100210009360CB68DB06FCD41A49CB68194A5807AF
:10022000FBD511469068C0B20002CB68154A9B0707
:10023000FBD5114600239360CB68DA06FCD4114944
:10024000CB68104A5B07FBD511469368DBB21843B5
:100250000002CB680B4A9B07FBD511460023936035
:10026000CB68DA06FCD40749CB68064A5B07FBD5A6
:100270009368034ADBB2802118439161704700BF45
:1002800040C009200080084038B50A4AD368094DAB
:1002900013F01004FAD1084805F064F86C602B687C
:1002A000022223F0C0032B602B6843F4C8432B6069
:1002B0006A6038BD00800840D459000038B50C4A47
:1002C000D3680B4D13F01004FAD10A4805F04AF830
:1002D000094B80229A616C602B68022243F0C003B4
:1002E0002B602B6823F4C8432B606A6038BD00BFC5
:1002F00000800840D459000040C0092038B5124D94
:100300000124EC610A2000F06FFAAC610A2000F0D1
:100310006BFA0E4B80229A610A200D4D00F064FAB0
:1003200002232B70FFF7B0FF29780020FFF7FCFEB7
:10033000204600F059FA2046C021FFF7F5FEBDE83F
:100340003840FFF7BBBF00BF00C0092040C00920F4
:10035000B80100102DE9F041324805F003F8FFF72D
:1003600093FF0120FFF700FF05460320FFF7FCFE87
:10037000044629462C4804F065FF21462B4804F02A
:1003800061FF2B4804F0EEFF2A4B0020197841F062
:100390000101FFF7C9FEFFF791FF02F0E7F8264AD7
:1003A00053699B07FCD402F0D5F8FFF76DFF234893
:1003B00004F0D8FF0220FFF7D7FE1F210220FFF72D
:1003C000B3FE1020FFF704FF06461120FFF700FFE1
:1003D00004461220FFF7FCFE07461320FFF7F8FE45
:1003E0001B20FFF7F5FE80461C20FFF7F1FE0546B7
:1003F000134804F0B7FF134AC8EB0500A2FB003214
:10040000801A02EB500210495009B1FBF0F301FBD6
:1004100004F106FB031107FB1314FFF74FFF2046FF
:10042000BDE8F081E8590000F8590000085A0000C2
:10043000185A0000B801001000C00920305A00000E
:10044000405A0000A5411AA4A08601001B4B0120C0
:1004500010B4C3F8800072B6AA215522C3F88C10DC
:10046000C3F88C2062B60024C3F8804072B6C3F88B
:100470008C10C3F88C2062B6114CC3F8844072B65D
:10048000C3F88C10C3F88C2062B6C3F8800072B633
:10049000C3F88C10C3F88C2062B60220C3F80401A4
:1004A0000320D3F88840C3F8800072B6C3F88C10DC
:1004B000C3F88C2062B65DF8044B704700C00F4053
:1004C000180001002DE9F84FFFF7C0FF614B6248AB
:1004D000D3F8C420614E42F40042C3F8C42002683D
:1004E0005F4F42F00072026032684FF0800E42F0BF
:1004F0000102326032684FF0007442F02002326034
:100500003A68202542EA0E0201213A6042F2107C4C
:100510008461C7F818E0F561F161D3F8A811514A78
:1005200041F48001C3F8A81151684F4C41F4001107
:100530005160516C4FF47F4841F400110EF1804E30
:1005400051640EF5203EC4F80080DEF83410474CAC
:1005500041F400514FF40018CEF83410C4F8008074
:10056000D3F8C4E042494EF4802EC3F8C4E0D3F877
:10057000A8814FF0004E48F00108C3F8A881D36865
:10058000DFF800A143F48243D3608B68804643F0D8
:1005900004038B60C1F83CC0C1F8DC5FC4F800E024
:1005A00002F008F8D346DFF8D8907B7D1A0721D4F3
:1005B00001F0D6FF72B664242025B56100BF00BFEC
:1005C00000BF00BF0A20F56100F00EF9013CF4D134
:1005D00062B64FF0007401F0BDFFC820C8F81C409F
:1005E00000F002F9C8F81840C82000F0FDF87B7D43
:1005F0001B07FCD59AF8003013B100238BF80030AC
:1006000001F060FD044640B11A4804F0ABFE2046FC
:1006100002F09AF8184804F0A5FE99F9003083EA30
:10062000E372A2EBE372032ABFDD181EB8BF0330EA
:10063000801002F03DF899F90010104B104A0B4061
:10064000002B01DB1370B0E7013B63F003030133C0
:100650001370AAE700C00F4060C0092000C0092045
:1006600040C0092000C0024000C0084000E100E096
:1006700000C00B40545A0000645A00000300008080
:10068000B9010010BA010010094B0A4A5B683BB976
:100690001378013B1370064B2022C3F8E82F7047F4
:1006A000137801331370024B2022C3F8E82F7047F0
:1006B00000C00B40B9010010044B054A012119701C
:1006C000D36A43F40053D362704700BFBA010010ED
:1006D000808002404FF040231A68D20712D51A6872
:1006E0000B4942F001021A604B690A4A83F0007319
:1006F0004B6113685900B1F5007F04D01160DB0134
:10070000054A13607047012313604023F8E700BFD8
:1007100060C00920CC00001000C0084000BF00BF2E
:1007200000BF00BF00BF00BF00BF00BF00BF00BFD1
:1007300000BF00BF00BF00BF00BF00BF00BF00BFC1
:1007400000BF00BF00BF00BF00BF00BF00BF00BFB1
:1007500000BF00BF00BF00BF00BF00BF00BF00BFA1
:1007600000BF00BF00BF00BF00BF00BF00BF00BF91
:1007700000BF00BF00BF00BF00BF00BF00BF00BF81
:1007800000BF00BF00BF00BF00BF00BF00BF00BF71
:1007900000BF00BF00BF00BF00BF00BF00BF00BF61
:1007A00000BF00BF00BF00BF00BF00BF00BF00BF51
:1007B00000BF00BF00BF00BF00BF00BF00BF00BF41
:1007C00000BF00BF00BF00BF00BF00BF00BF00BF31
:1007D00000BF00BF00BF00BF00BF00BF00BF00BF21
:1007E00000BF00BF704700BF38B54FF47A7505FBF6
:1007F00000F52DB100240134FFF790FFAC42FAD18F
:1008000038BD00BF10B504460A48022101F006FBBE
:100810000028F9D02146074801F0D4FA0548042100
:1008200001F0FCFA0028F9D0024801F0E1FAC0B268
:1008300010BD00BF0080084038B505460C460020BA
:100840004FF4803101F098F97020FFF7DBFF0020B2
:10085000FFF7D8FF2020FFF7D5FF00204FF48031AD
:1008600001F080F94FF48031002001F085F9722009
:10087000FFF7C8FF280AFFF7C5FFE8B2FFF7C2FF7E
:1008800000204FF4803101F06DF94FF480310020E9
:1008900001F072F97020FFF7B5FF0020FFF7B2FFFB
:1008A0002120FFF7AFFF00204FF4803101F05AF90B
:1008B0004FF48031002001F05FF97220FFF7A2FFB2
:1008C000200AFFF79FFFE0B2FFF79CFFBDE838402A
:1008D00000204FF4803101F045B900BF10B5144637
:1008E000FFF7AAFF4FF48031002001F045F9702096
:1008F000FFF788FF0020FFF785FF2220FFF782FF28
:1009000000204FF4803101F02DF94FF480310020A8
:1009100001F032F97220FFF775FF200AFFF772FF2E
:10092000E0B2FFF76FFFBDE8104000204FF48031C8
:1009300001F018B910B504460548022101F06EFA1D
:100940000028F9D02146BDE81040014801F03ABA2C
:10095000008008402DE9F04F8BB000240F230226C1
:1009600002A88DF8093001934FF0110A8DF80A6042
:100970008DF80C408DF80B408DF8084001F040F9DF
:1009800002A84FF012098DF809A001F039F902A868
:1009900010258DF8099001F033F902A88DF80A406E
:1009A0008DF808408DF8095001F02AF901222046FF
:1009B0004FF4803101F0C4F820464FF4803101F04B
:1009C000D1F8DFF800B40DEB050001F0CBF9FC4ADB
:1009D0000DEB0501584680274FF040080992059716
:1009E000CDF8188001F058F95846012101F0C6F9F8
:1009F0004FF48031204601F0BFF87020FFF702FF6E
:100A00002046FFF7FFFE2046FFF7FCFE20464FF48E
:100A1000803101F0A7F84FF48031204601F0ACF8A6
:100A20007220FFF7EFFE2046FFF7ECFE2046FFF7AF
:100A3000E9FE20464FF4803101F094F84FF4803104
:100A4000204601F099F87020FFF7DCFE2046FFF702
:100A5000D9FE0120FFF7D6FE20464FF4803101F089
:100A600081F84FF48031204601F086F87220FFF7BC
:100A7000C9FE0120FFF7C6FE2046FFF7C3FE204651
:100A80004FF4803101F06EF84FF48031204601F0D0
:100A900073F87020FFF7B6FE2046FFF7B3FE30462E
:100AA000FFF7B0FE20464FF4803101F05BF84FF4C1
:100AB0008031204601F060F87220FFF7A3FE072086
:100AC000FFF7A0FE2046FFF79DFE20464FF4803141
:100AD00001F048F84FF48031204601F04DF87020C5
:100AE000FFF790FE2046FFF78DFE0320FFF78AFEFA
:100AF00020464FF4803101F035F84FF48031204624
:100B000001F03AF87220FFF77DFE2846FFF77AFEE3
:100B10003820FFF777FE20464FF4803101F022F8AD
:100B20004FF48031204601F027F87020FFF76AFE6D
:100B30002046FFF767FE0420FFF764FE20464FF4CF
:100B4000803101F00FF84FF48031204601F014F8A5
:100B50007220FFF757FE2046FFF754FE2046FFF7AE
:100B600051FE20464FF4803100F0FCFF4FF48031FD
:100B7000204601F001F87020FFF744FE2046FFF701
:100B800041FE0820FFF73EFE20464FF4803100F082
:100B9000E9FF4FF48031204600F0EEFF7220FFF7AE
:100BA00031FE3046FFF72EFE3046FFF72BFE204683
:100BB0004FF4803100F0D6FF4FF48031204600F032
:100BC000DBFF7020FFF71EFE2046FFF71BFE09200B
:100BD000FFF718FE20464FF4803100F0C3FF4FF4BA
:100BE0008031204600F0C8FF7220FFF70BFE204640
:100BF000FFF708FE2046FFF705FE20464FF4803140
:100C000000F0B0FF4FF48031204600F0B5FF7020B7
:100C1000FFF7F8FD2046FFF7F5FD0A20FFF7F2FD8C
:100C200020464FF4803100F09DFF4FF48031204684
:100C300000F0A2FF7220FFF7E5FD2046FFF7E2FD7E
:100C40002046FFF7DFFD20464FF4803100F08AFF99
:100C50004FF48031204600F08FFF7020FFF7D2FD67
:100C60002046FFF7CFFD0C20FFF7CCFD20464FF4C8
:100C7000803100F077FF4FF48031204600F07CFF98
:100C80007220FFF7BFFD2046FFF7BCFD0120FFF7F4
:100C9000B9FD20464FF4803100F064FF4FF48031FD
:100CA000204600F069FF7020FFF7ACFD2046FFF7FB
:100CB000A9FD0D20FFF7A6FD20464FF4803100F07E
:100CC00051FF4FF48031204600F056FF7220FFF7AD
:100CD00099FD2046FFF796FD2046FFF793FD20463D
:100CE0004FF4803100F03EFF4FF48031204600F099
:100CF00043FF7020FFF786FD2046FFF783FD019B31
:100D00001846FFF77FFD20464FF4803100F02AFFA0
:100D10004FF48031204600F02FFF7220FFF772FD64
:100D20002046FFF76FFD2046FFF76CFD20464FF48D
:100D3000803100F017FF4FF48031204600F01CFF97
:100D40007020FFF75FFD2046FFF75CFD0720FFF7EF
:100D500059FD20464FF4803100F004FF4FF48031FC
:100D6000204600F009FF7220FFF74CFD0120FFF73D
:100D700049FD0120FFF746FD20464FF4803100F089
:100D8000F1FE4FF48031204600F0F6FE7020FFF7B0
:100D900039FD2046FFF736FD2846FFF733FD204694
:100DA0004FF4803100F0DEFE4FF48031204600F039
:100DB000E3FE7220FFF726FD2846FFF723FD03E040
:100DC00080CC060200800840C020FFF71BFD2046B3
:100DD0004FF4803100F0C6FE4FF48031204600F021
:100DE000CBFE7020FFF70EFD2046FFF70BFD5046AF
:100DF000FFF708FD20464FF4803100F0B3FE4FF4BA
:100E00008031204600F0B8FE7220FFF7FBFC204640
:100E1000FFF7F8FC0720FFF7F5FC20464FF4803180
:100E200000F0A0FE4FF48031204600F0A5FE7020B7
:100E3000FFF7E8FC2046FFF7E5FC4846FFF7E2FC39
:100E400020464FF4803100F08DFE4FF48031204673
:100E500000F092FE7220FFF7D5FC0120FFF7D2FCD4
:100E60002846FFF7CFFC20464FF4803100F07AFE91
:100E70004FF48031204600F07FFE7020FFF7C2FC67
:100E80002046FFF7BFFC1320FFF7BCFC20464FF4C1
:100E9000803100F067FE4FF48031204600F06CFE98
:100EA0007220FFF7AFFC0B20FFF7ACFC2046FFF7EA
:100EB000A9FC20464FF4803100F054FE4FF48031FD
:100EC000204600F059FE7020FFF79CFC2046FFF7FB
:100ED00099FC2920FFF796FC20464FF4803100F062
:100EE00041FE4FF48031204600F046FE7220FFF7AD
:100EF00089FC2046FFF786FC2046FFF783FC20464E
:100F00004FF4803100F02EFE4FF48031204600F087
:100F100033FE7020FFF776FC2046FFF773FC2B2092
:100F2000FFF770FC20464FF4803100F01BFE4FF4B9
:100F30008031204600F020FE7220FFF763FC40461F
:100F4000FFF760FC2846FFF75DFC20464FF4803138
:100F500000F008FE4FF48031204600F00DFE7020B6
:100F6000FFF750FC2046FFF74DFC5020FFF74AFCEE
:100F700020464FF4803100F0F5FD4FF480312046DB
:100F800000F0FAFD7220FFF73DFC2046FFF73AFC27
:100F90002046FFF737FC20464FF4803100F0E2FD99
:100FA0004FF48031204600F0E7FD7020FFF72AFC67
:100FB0002046FFF727FC5120FFF724FC20464FF482
:100FC000803100F0CFFD4FF48031204600F0D4FD99
:100FD0007220FFF717FC2046FFF714FCEF20FFF705
:100FE00011FC20464FF4803100F0BCFD4FF48031FD
:100FF000204600F0C1FD7020FFF704FC2046FFF7FB
:1010000001FC5220FFF7FEFB20464FF4803100F038
:10101000A9FD4FF48031204600F0AEFD7220FFF7AD
:10102000F1FB2046FFF7EEFB2046FFF7EBFB2046E7
:101030004FF4803100F096FD4FF48031204600F0EF
:101040009BFD7020FFF7DEFB2046FFF7DBFB532004
:10105000FFF7D8FB20464FF4803100F083FD4FF4BA
:101060008031204600F088FD7220FFF7CBFB012085
:10107000FFF7C8FB3F20FFF7C5FB20464FF4803148
:1010800000F070FD4FF48031204600F075FD7020B7
:10109000FFF7B8FB2046FFF7B5FB6020FFF7B2FB78
:1010A00020464FF4803100F05DFD4FF48031204642
:1010B00000F062FD7220FFF7A5FB2720FFF7A2FBDF
:1010C0002046FFF79FFB20464FF4803100F04AFD99
:1010D0004FF48031204600F04FFD7020FFF792FB67
:1010E0002046FFF78FFB6120FFF78CFB20464FF473
:1010F000803100F037FD4FF48031204600F03CFD98
:101100007220FFF77FFB2046FFF77CFB0120FFF7F3
:1011100079FB20464FF4803100F024FD4FF48031FC
:10112000204600F029FD7020FFF76CFB2046FFF7FA
:1011300069FB6A20FFF766FB20464FF4803100F020
:1011400011FD4FF48031204600F016FD7220FFF7AC
:1011500059FB2046FFF756FB2046FFF753FB20467E
:101160004FF4803100F0FEFC4FF48031204600F057
:1011700003FD7020FFF746FB2046FFF743FB384690
:10118000FFF740FB20464FF4803100F0EBFC4FF4BA
:101190008031204600F0F0FC7220FFF733FB204640
:1011A000FFF730FB2046FFF72DFB20464FF4803140
:1011B00000F0D8FC4FF48031204600F0DDFC7020B8
:1011C000FFF720FB2046FFF71DFB8120FFF71AFBEE
:1011D00020464FF4803100F0C5FC4FF480312046AA
:1011E00000F0CAFC7220FFF70DFB2046FFF70AFB58
:1011F0002046FFF707FB20464FF4803100F0B2FC99
:101200004FF48031204600F0B7FC7020FFF7FAFA67
:101210002046FFF7F7FA8220FFF7F4FA20464FF452
:10122000803100F09FFC4FF48031204600F0A4FC98
:101230007220FFF7E7FA2046FFF7E4FA2046FFF7AF
:10124000E1FA20464FF4803100F08CFC4FF48031FD
:10125000204600F091FC7020FFF7D4FA2046FFF7FB
:10126000D1FA8320FFF7CEFA20464FF4803100F008
:1012700079FC4FF48031204600F07EFC7220FFF7AD
:10128000C1FA2046FFF7BEFA2046FFF7BBFA204618
:101290004FF4803100F066FC4FF48031204600F0BE
:1012A0006BFC7020FFF7AEFA2046FFF7ABFA842004
:1012B000FFF7A8FA20464FF4803100F053FC4FF4BA
:1012C0008031204600F058FC7220FFF79BFA204640
:1012D000FFF798FA2046FFF795FA20464FF4803141
:1012E00000F040FC4FF48031204600F045FC7020B7
:1012F000FFF788FA2046FFF785FA8520FFF782FA84
:1013000020464FF4803100F02DFC4FF48031204610
:1013100000F032FC7220FFF775FA2046FFF772FAF0
:101320002046FFF76FFA20464FF4803100F01AFC98
:101330004FF48031204600F01FFC7020FFF762FA66
:101340002046FFF75FFA9020FFF75CFA20464FF443
:10135000803100F007FC4FF48031204600F00CFC97
:101360007220FFF74FFA2046FFF74CFA2846FFF7A6
:1013700049FA20464FF4803100F0F4FB4FF48031FD
:10138000204600F0F9FB7020FFF73CFA2046FFF7FB
:1013900039FA9220FFF736FA20464FF4803100F0F8
:1013A000E1FB4FF48031204600F0E6FB7220FFF7AE
:1013B00029FA2046FFF726FA2046FFF723FA2046AF
:1013C0004FF4803100F0CEFB4FF48031204600F026
:1013D000D3FB7020FFF716FA2046FFF713FA93208D
:1013E000FFF710FA20464FF4803100F0BBFB4FF4BA
:1013F0008031204600F0C0FB7220FFF703FA204640
:10140000FFF700FA0120FFF7FDF920464FF4803185
:1014100000F0A8FB4FF48031204600F0ADFB7020B7
:10142000FFF7F0F92046FFF7EDF99520FFF7EAF90D
:1014300020464FF4803100F095FB4FF48031204678
:1014400000F09AFB7220FFF7DDF90120FFF7DAF9CF
:101450002846FFF7D7F920464FF4803100F082FB91
:101460004FF48031204600F087FB7020FFF7CAF967
:101470002046FFF7C7F99720FFF7C4F920464FF43D
:10148000803100F06FFB4FF48031204600F074FB98
:101490007220FFF7B7F92046FFF7B4F92046FFF7AF
:1014A000B1F920464FF4803100F05CFB4FF48031FD
:1014B000204600F061FB7020FFF7A4F92046FFF7FB
:1014C000A1F99820FFF79EF920464FF4803100F0F3
:1014D00049FB4FF48031204600F04EFB7220FFF7AD
:1014E00091F92046FFF78EF92046FFF78BF9204649
:1014F0004FF4803100F036FB4FF48031204600F08D
:101500003BFB7020FFF77EF92046FFF77BF90720B1
:10151000FFF778F920464FF4803100F023FB4FF4B9
:101520008031204600F028FB7220FFF76BF9012084
:10153000FFF768F93320FFF765F920464FF4803153
:1015400000F010FB0BB0BDE8F08F00BF70B5054692
:1015500000200146FFF770F94FF48031002000F0C1
:101560000BFB7020FFF74EF90020FFF74BF922200C
:10157000FFF748F900204FF4803100F0F3FA002023
:101580004FF4803100F0F8FA7220FFF73BF92E0A91
:101590004FF49634EDB23046FFF7CCF92846FFF70A
:1015A000C9F9013CF7D10848042100F037FC0028B4
:1015B000F9D0054800F01CFCBDE8704000204FF455
:1015C000803100F0CFBA00BF0080084099422DE979
:1015D000F0478BBF1D461F460F460D467E1BB6B219
:1015E0009042B3B2BDF8208087BF81461446914631
:1015F0000446C3B1C4EB090A1FFA8AFA1FFA8AF239
:10160000E2B9EF2D40F28C800135ADB2AF42F8D295
:10161000BDE8F087284621464246FFF75FF90134CE
:10162000A4B2A14508D3EF2DF9D8B4F5A07FF1D32A
:101630000134A4B2A145F6D2BDE8F0871BB212B2C4
:1016400093422ADD4FEA4A0A1FFA8AF9C6EB0906D5
:10165000BD42B6B24AD0D31A4FEA430A1FFA8AFAF9
:1016600010E033B2002B05F101050AEB0603ADB221
:10167000D8BF4E4404F10102C6BF94B29EB2B6B2C6
:10168000AF4233D0EF2DECD8B4F5A07FE9D2284695
:1016900021464246FFF722F9E3E7CAEB46064C45EE
:1016A000B6B22AD0D31A5F004FEA4A0ABFB21FFA75
:1016B0008AFA10E033B2002B04F1010407EB0603B1
:1016C000A4B2D8BF564405F10102C6BF95B29EB27E
:1016D000B6B2A14511D0EF2DECD8B4F5A07FE9D278
:1016E000284621464246FFF7F9F8E3E7EF2F02D8F4
:1016F000B4F5A07F0DD3BDE8F087EF2DFBD8B9F589
:10170000A07FF8D2284649464246BDE8F047FFF799
:10171000E5B8384621464246BDE8F047FFF7DEB857
:10172000B4F5A07FBFF470AF284621464246FFF7CC
:10173000D5F869E72DE9F04188461F4605464FF484
:10174000803100201446BDF8186000F015FA7020B2
:10175000FFF758F80020FFF755F85020FFF752F830
:1017600000204FF4803100F0FDF94FF4803100206B
:1017700000F002FA7220FFF745F84FEA1820FFF751
:1017800041F85FFA88F0FFF73DF800204FF4803110
:1017900000F0E8F94FF48031002000F0EDF97020FE
:1017A000FFF730F80020FFF72DF85120FFF72AF857
:1017B00000204FF4803100F0D5F94FF48031002043
:1017C00000F0DAF97220FFF71DF8380AFFF71AF86F
:1017D000F8B2FFF717F800204FF4803100F0C2F99B
:1017E0004FF48031002000F0C7F97020FFF70AF8AD
:1017F0000020FFF707F85220FFF704F800204FF40D
:10180000803100F0AFF94FF48031002000F0B4F9DE
:101810007220FEF7F7FF280AFEF7F4FFE8B2FEF7A2
:10182000F1FF00204FF4803100F09CF94FF480313B
:10183000002000F0A1F97020FEF7E4FF0020FEF781
:10184000E1FF5320FEF7DEFF00204FF4803100F06F
:1018500089F94FF48031002000F08EF97220FEF7F4
:10186000D1FF200AFEF7CEFFE0B2FEF7CBFF00204B
:101870004FF4803100F076F929464046FEF7DCFF50
:101880004FF48031002000F077F97020FEF7BAFFA6
:101890000020FEF7B7FF2220FEF7B4FF00204FF430
:1018A000803100F05FF900204FF48031651B00F0BB
:1018B00063F97220C8EB0707FEF7A4FF002DB8BF3D
:1018C0006D42002FB8BF7F42013507FB055500244C
:1018D000370AF6B23846FFF72DF801343046FFF7E5
:1018E00029F8AC42F6D15448042100F097FA0028B8
:1018F000F9D0514800F07CFA00204FF4803100F01C
:1019000031F94FF48031002000F036F97020FEF7F5
:1019100079FF0020FEF776FF5020FEF773FF0020CE
:101920004FF4803100F01EF94FF48031002000F0B8
:1019300023F97220FEF766FF0020FEF763FF002008
:10194000FEF760FF00204FF4803100F00BF94FF4F8
:101950008031002000F010F97020FEF753FF0020C6
:10196000FEF750FF5120FEF74DFF00204FF480316D
:1019700000F0F8F84FF48031002000F0FDF87220FC
:10198000FEF740FF0020FEF73DFFEF20FEF73AFF95
:1019900000204FF4803100F0E5F84FF48031002052
:1019A00000F0EAF87020FEF72DFF0020FEF72AFF76
:1019B0005220FEF727FF00204FF4803100F0D2F8CC
:1019C0004FF48031002000F0D7F87220FEF71AFFA4
:1019D0000020FEF717FF0020FEF714FF00204FF451
:1019E000803100F0BFF84FF48031002000F0C4F8DF
:1019F0007020FEF707FF0020FEF704FF5320FEF7DC
:101A000001FF00204FF4803100F0ACF84FF480313A
:101A1000002000F0B1F87220FEF7F4FE0120FEF77E
:101A2000F1FE3F20FEF7EEFEBDE8F04100204FF44E
:101A3000803100F097B800BF008008402DE9F04FDA
:101A4000804687B000930DF1080BBDF840300E467C
:101A500058461146019300F061F808F108030DF1B2
:101A600018091FFA83FA44461BF8017B07250AE090
:101A7000EF2E02D8B4F5A07F20D30134A4B2544590
:101A800005F1FF3513D047FA05F2D307F0D4EF2E56
:101A9000F3D8B4F5A07FF0D2214601343046019A44
:101AA000A4B2FEF71BFF544505F1FF35EBD1013E13
:101AB000CB45B6B2D7D107B0BDE8F08F304621464E
:101AC000009AFEF70BFFD8E72DE9F04182B01646E9
:101AD00004460D4698461278BDF8207003E016F8CB
:101AE000012FA4B2B2B12046009729464346FFF722
:101AF000A5FFB4F59C7F04F10804F0D3DF2D16F8A0
:101B0000012F05F110058DBF0025ADB200242C4634
:101B1000002AE8D102B0BDE8F08100BF30B405462C
:101B2000054B203903EB01140FCC28606960AA60D3
:101B3000EB6030BC704700BF745A0000FEE700BF86
:101B4000042808D8064B53F8203023B122B91A686C
:101B500022EA0101196070471A6811431960704741
:101B600064600000042804D8024B53F8203003B10D
:101B70009961704764600000042804D8024B53F850
:101B8000203003B1D9617047646000000D4B1F28FD
:101B90001A680D4B8ABF2038D3F8A831D3F8AC317E
:101BA000C34003F00300022804D0032805D0012815
:101BB00018BF0420B2FBF0F070470820B2FBF0F031
:101BC000704700BF1801001000C00F4001290AD063
:101BD00041B9094A094BD2F8C4100B4023EA00036B
:101BE000C2F8C43070470449044AD1F8C4300240F6
:101BF0001343C1F8C430704700C00F40DEF7EFEF69
:101C000070B4427803780F2A4FEA430388BF013348
:101C10004FEA830303F1804303F5303388BF103A62
:101C20001C688178520003259540914024EA050202
:101C30000A431A60437802780F2B4FEA4202144E8F
:101C400084BF0132103B5B0056F82240C178032567
:101C50009D40994024EA05030B4346F8223003795E
:101C60000178012B44780AD00A48012250F821302B
:101C7000A24023EA020340F8213070BC7047054AB5
:101C8000A34052F8210070BC034342F82130704752
:101C900040C0024068C00240304B70B598420446D4
:101CA0000D4643D0A3F5B023984205D0BDE870405F
:101CB0002B488121FFF742BF4FF480600121FFF7DD
:101CC00085FF6B68A9682A6919432B680A43134387
:101CD0009BB22360EB68142003F00F0363606E690E
:101CE000FFF754FF731C4FF002054FF0000215D0B0
:101CF000511C05FB01F3B0FBF3F3B3420BD9FF29F1
:101D000001D9023500210A46511C05FB01F3B0FB45
:101D1000F3F3B342F3D8120292B2EDB22368DBB20E
:101D2000236023681A432260256170BD4FF40010C0
:101D30000121FFF74BFF6B68A9682A6919432B68DB
:101D40000A4313439BB22360EB682A2003F00F037E
:101D500063606E69FFF71AFFC4E700BF00800840A8
:101D600078600000044900230722416180E80C00EC
:101D70008360C3600361704740420F0038B50F4B6A
:101D8000044698420D4607D0A3F5B023984203D0ED
:101D90000B48E521FFF7D2FE012D08D90848E621BE
:101DA000FFF7CCFE636803F00D03636038BDF9D123
:101DB000636843F00203636038BD00BF00800840E1
:101DC0007860000038B5084B044698420D4608D0AC
:101DD000A3F5B023984204D004484FF49A71FFF75A
:101DE000ADFEA56038BD00BF0080084078600000EF
:101DF000084B10B59842044608D0A3F5B02398428A
:101E000004D005484FF4A271FFF798FEA06880B295
:101E100010BD00BF008008407860000038B5114B4D
:101E2000054698420C4608D0A3F5B023984204D04A
:101E30000D484FF40571FFF781FE631E012B0AD98F
:101E4000042C08D0082C06D0102C04D0064840F2F0
:101E50001521FFF773FEEB681C4214BF0120002020
:101E600038BD00BF008008407860000010B504460F
:101E70000A481021FFF7D2FF0128F9D02146074870
:101E8000FFF7A0FF05480421FFF7C8FF0028F9D09D
:101E90000248FFF7ADFFC0B210BD00BF0000034015
:101EA00010B50020FFF7E2FF04020020FFF7DEFF7D
:101EB000A4B22043C0F3CB0010BD00BF30B589B041
:101EC00000240225684607238DF804408DF803405E
:101ED0008DF800408DF801308DF80250FFF790FE2C
:101EE000684608238DF80130FFF78AFE684609230B
:101EF0008DF80130FFF784FE684606238DF8024016
:101F00008DF800408DF80130FFF77AFE0D2368460A
:101F10008DF801308DF802408DF80050FFF770FE0B
:101F2000224628464FF40051FFF70AFE28464FF498
:101F30000051FFF717FE012220464021FFF700FE67
:101F400020464021FFF70EFE074C02A8FFF70AFFCC
:101F5000064B02A920460793FFF79EFE204601216B
:101F6000FFF70CFF09B030BD0000034020A10700BF
:101F700038B5054C4025E5619020FFF777FFFFF766
:101F80008FFFA56138BD00BF00C0092038B5054CE2
:101F90004025E561D020FFF769FFFFF781FFA561CC
:101FA00038BD00BF00C009202DE9F04F04464FF6B0
:101FB000FF7A0D464BF6F049A0F10F0B85B01FFAE2
:101FC0008BFB821E0B465846CDF800A092B204F15E
:101FD0000F08FFF7FBFA1FFA88F8A01CCDF800A045
:101FE000424629462B4680B2A5F10F06FFF7EEFACE
:101FF000B6B2AB1ECDF800A03146204622469BB2B9
:1020000005F10F07FFF7E2FABFB2A91CCDF800A057
:102010003B462046224689B2FFF7D8FAA4F1070CC6
:102020001FFA8CFC05F1070A6246584639463B46C2
:102030001FFA8AFACDF80090CDF80CC0FFF7C6FA67
:1020400058465A463B465146CDF80090FFF7BEFA37
:10205000DDF80CC0073D6246584631463346ADB206
:10206000CDF800900734FFF7B1FAA4B258465A46AB
:1020700029463346CDF80090FFF7A8FA20463946A6
:1020800042463B46CDF80090FFF7A0FA51463B464A
:1020900040464246CDF80090FFF798FA2046314678
:1020A00042463346CDF80090FFF790FA31462B4672
:1020B000CDF8009040464246FFF788FA05B0BDE8EB
:1020C000F08F00BFF0B593B068460021482202F0BF
:1020D00043FD584FADF104050024FFF749FF0646C4
:1020E000FFF754FF45F8046F68627B6901349B0475
:1020F000E4B200F18980092CEFD1009B0199039A89
:10210000029D0498059C19444B4B294410442044DB
:1021100083FB0124069EA4EBE171079C83FB005224
:10212000089D34442C4483FB0453A2EBE072881ACC
:10213000A3EBE4730028A2EB0304B8BF40425D1A8E
:10214000002CB8BF6442002DB8BF6D42022803DDE9
:10215000022C42DD022D5ADCA0423EDAA84259DDB3
:102160000B4403EBD373354A5B101380099B0A9829
:102170000C990B9E0D9C0E9D18442F4B30440C4423
:102180002C4483FB00150F9FA5EBE070109D83FB93
:102190000461119E3D44354483FB0563A1EBE4716A
:1021A000441AA3EBE573002CA1EB0305B8BF64420E
:1021B0001E1A002DB8BF6D42002EB8BF7642022C09
:1021C00016DD022D12DCB54216DC0B441B4803EB76
:1021D000D3735B10538013B0F0BDAC42C0DC13442A
:1021E00003EBD373154A5B101380BFE7022E0EDC9E
:1021F000AC42E8DAB44214DD034403EBD3730F4876
:102200005B10538013B0F0BD092C3FF476AF002073
:1022100013B0F0BD8B1803EBD373084A5B10138027
:10222000A4E7431803EBD37304485B10538013B047
:10223000F0BD00BF40C0092056555555BC010010E7
:102240004B882DE9F04F1D46B1F80AA08BB00C89E0
:10225000B1F80480C5EB0A0603950D88C988C4EB64
:10226000080306FB03F304960E462F1BCAEB060178
:1022700000953D460F46814607FB053001950297C4
:10228000154601F0E3FE00220023C5E90C0102F02F
:10229000ABF90590002840F08380B9F80870B9F8D0
:1022A00004B0B9F80030C7EB0B0296460692049AC8
:1022B00002990EFB02F0DA1B02FB0100099308925F
:1022C00001F0C4FEC8EB040E7346089AC5E900018C
:1022D00003FB02F20198069BCDF81CE003FB0020F3
:1022E00001F0B4FE009B0BFB04FE07FB03F2099B0D
:1022F00007FB18E703FB142203FB08F302FB06FCB1
:10230000009AC5E902010BFB1233039A07FB02C7CF
:1023100003FB0A7001F09AFEB9F80AB0B9F806306A
:10232000B9F802700693CBEB0309049BC5E90401DD
:1023300009FB03FE0299CBEB070202FB01E00292CC
:1023400001F084FE079B029AC5E9060102FB03F235
:10235000019809FB002001F079FE009BC5E9080106
:102360000BFB03F2069B03FB04FE07FB14240BFB91
:1023700018EE04FB06F4039A07FB08F80EFB024B69
:10238000009A03FB128606FB0AB001F05FFEDDF83F
:1023900014C0C5E90A01634618460BB0BDE8F08FCA
:1023A000012318460BB0BDE8F08F00BF2DE9F04FB8
:1023B000D2E90C4585B09246834688460022002328
:1023C0002046294602F010F9019000284FD1B8F8B4
:1023D000020001F03BFE0646B8F800000F4601F08F
:1023E00035FEDAE9002301F097FEDAE90223CDE9B0
:1023F00002013046394601F08FFE02460B46DDE908
:10240000020101F0D7FCDAE9042301F0D3FC2246F3
:102410002B4601F0ABFF02F019F9ABF80000B8F859
:10242000000001F013FEDAE9062301F075FEDAE997
:102430000823804689463046394601F06DFE024643
:102440000B464046494601F0B5FCDAE90A2301F0A3
:10245000B1FC22462B4601F089FF02F0F7F8DDF8C7
:1024600004C0ABF80200604605B0BDE8F08F4FF045
:10247000010C604605B0BDE8F08F00BFF0B519480B
:1024800083B0002402F06EFF2746174E174D002040
:10249000FFF75CF80A2001464FF6FF730097144AD5
:1024A000FFF712FB33195888315BFFF77DFDFFF70B
:1024B00009FE0028FBD002882B192A5342880434D5
:1024C0000C2C5A80E3D109490A4A0748FFF7B8FEA5
:1024D0004BF2B650FFF73AF803B0BDE8F04000F019
:1024E0004BB800BF94600000D000001064040010DE
:1024F000AC600000E000001000B50D4889B002F0AB
:1025000031FF0C4802F02EFFFDF724FF0A49024676
:1025100003A802F03FFF4BF2B653C820009303AA72
:1025200001460023FFF7D0FA09B05DF804FB00BFB5
:10253000CC600000D8600000F060000038B504688E
:1025400005462CB1204600F089F9204601F04DFBEC
:10255000284638BD0148002100F0A2BBCC01001084
:102560000148012100F09CBBCC0100100148022170
:1025700000F096BBCC01001008B54BF2B650FEF748
:10258000E5FF084800F036FB074B186800F0A4F997
:10259000064B186800F0A0F9054B1868BDE8084024
:1025A00000F09AB9CC010010E0010010E801001021
:1025B000C001001070B582B0FEF7CCF9FFF77EFCC9
:1025C0006420FEF711F9FDF799FE302001F00FFBB2
:1025D00004462E4B2E4D00932E495A22B42300F070
:1025E000DFFA2E682C60002E4AD0304600F036F913
:1025F000304601F0FAFA286841221023C260436194
:10260000302001F0F4FA0446234D24490A22B42371
:1026100000F078FA2E682C60002E33D0304600F09F
:102620001DF9304601F0E1FA28681D4B10211B68A6
:102630000A22C3F3891341240384C460416180F8F2
:102640002220302001F0D3FA0446164B164D009399
:1026500016495A221E2300F0A3FA2E682C609EB160
:10266000304600F0FBF8304601F0BFFA28684122FE
:102670001023C260436102B0BDE87040FFF77CBF29
:102680002046B9E72046D0E72046F0E77D24000049
:10269000E001001010610000E8010010206100005E
:1026A00000C00840F9240000C001001018610000BB
:1026B00070B5164C236843B1154D2B6833B10646EF
:1026C000144800F095FA042809D070BD6B68DE0745
:1026D000FBD506460F4800F08BFA0428F5D16B684D
:1026E0000B4AD90709D520685B10C15812681844F5
:1026F0008A583146BDE87040104720683146BDE831
:102700007040126800EB6300104700BFC401001066
:10271000EC010010CC01001010B483B08DE806006D
:10272000064C074908609DE8030084E80500054859
:10273000042103B05DF8044B00F0B2BAEC010010C4
:10274000C4010010CC01001038B50546164800F051
:102750004FFA04281BD0154C29462046144AFFF78F
:1027600025FE22886388134D134C114618462A60B3
:10277000236000F035F93220FEF736F80F4A53692E
:102780009B04FCD56420BDE83840FEF72DB80C4B07
:102790000C4A1B6804481B8C00219B019BB21360F0
:1027A00000F07EFAE7E700BFCC01001060040010E3
:1027B000E0000010DC010010D801001040C009202A
:1027C000E801001000C0084038B5104D104C2946F3
:1027D0002246104801F004FA294622460E4801F02C
:1027E000FFF9294622460D4801F0FAF9294622460A
:1027F0000B4801F0F5F9294622460A4801F0F0F9A4
:10280000BDE83840084800F0E9B900BF3D250000A8
:10281000C8000010E8010010E0010010E401001001
:10282000C8010010C0010010CC01001010B5044612
:10283000006808B101F0D9F9204610BD00B5064A7C
:1028400083B000238DE80C0002AB13E90600FFF70C
:1028500063FF03B05DF804FB5129000010B5044686
:10286000024802F07FFD204610BD00BF2461000039
:1028700070B5044686B0028C164903A802F08AFDA2
:102880002189A088E268258B01F11003024492B2ED
:102890009BB20095FEF74EFFE06902F0E2FDE568AD
:1028A000A36821696268666905EBD575083301EB99
:1028B000D17102EB650203EB6101638B248BA2EB08
:1028C0008000891B03AA80B289B20094FFF7FCF84C
:1028D00006B070BD386100002DE9F04104468088E3
:1028E0002189E2682369258B82B00B44024492B2AD
:1028F0009BB20095FEF71EFFD4F81C80404602F004
:10290000B0FDA568E76863696668216907EBD7775A
:102910002B4406EB670603F10805278B01EBD17109
:10292000A6EB800005EB6101638B424680B289B261
:102930000097FFF7C9F82378522B02D002B0BDE808
:10294000F081204602B0BDE8F041FFF791BF00BF23
:1029500090F8223010B401FB03F1048C49B22144F9
:1029600001845DF8044BFFF783BF00BF70B50446D8
:102970000D461848164602F0F5FC6368AB420FDCC2
:10298000A168B1420CDCE26813449D4208DC236973
:1029900019448E4204DC2378522B09D0462B00D0F8
:1029A00070BD0D4802F0DEFCE36ABDE870401847D8
:1029B0000A4802F0D7FCA36ADA0705D404EB6300E7
:1029C000636ABDE8704018475B10E158626AE0181E
:1029D0008B58F6E73C610000746100005461000010
:1029E0002DE9F843184E044618480D46184F02F0DA
:1029F000B9FC96E80A00591A891007FB01F109B3DE
:102A00004FF00009C846134802F01CFC414612482A
:102A100002F018FC336809EB890903EB8909D9F83E
:102A2000100021462A46FFF7A1FF96E80A00591A2E
:102A3000891007FB01F108F101085FFA88F8884561
:102A4000C146E0D3BDE8F883F401001094610000B2
:102A5000CDCCCCCCA4610000BC6100002DE9F843D2
:102A6000D0F800C04468254ACCEB0404A31002FB54
:102A700003FE07460D46BEF1000F06D04FEA4E0397
:102A80009E4530D96FF00F0801E04FF01408404622
:102A900001F0ADF88146D7F800C07C68174ACCEB4E
:102AA0000404A31002FB03FE19EB040603D00FCDB0
:102AB0000FC62B683360BEF1000F0DD16046143491
:102AC0004C4408B101F091F809EB0803BB60C7F86A
:102AD00000907C60BDE8F88361464846224602F0DB
:102AE00020F83868EBE7064A9342CBD84FF0140839
:102AF00008FB03F89946002BD6D0C8E7CDCCCCCC48
:102B0000CCCCCC0C2DE9F04F044644F2164942F2ED
:102B10000A285220DFF884E02070DEF80860DEF832
:102B2000047087B00025322002F1320B03F1320A23
:102B30004FF0010CB7426260A360E1610192CDF8F1
:102B40000CB00293CDF810A00594A4F81890A4F846
:102B50001A8084F822C025846561E060206114D069
:102B60002FB13D4601AE0FCE0FC533682B60143731
:102B7000CEF80470074802F0F5FB2046064A002311
:102B80006262A36207B0BDE8F08F704601A9FFF74B
:102B900065FFEFE7E46100003D280000F40100104C
:102BA00038B50446049DFFF7ADFF46232370E56268
:102BB000204638BD064B10B400241C605C609C604D
:102BC00018460449044A5DF8044B01F009B800BFF7
:102BD000F40100102D280000C800001010B40024DB
:102BE0000A210C22047280E806005DF8044B70474D
:102BF000007A70474FF6FF7310B5044682B000208C
:102C0000009301460C234FF4A072FEF793FD237A44
:102C1000042B0DD8DFE803F00E19242F03004FF624
:102C2000FF732088A188194A00930023FEF74CFF08
:102C300002B010BD4FF6FF732088A188144A00939C
:102C40000023FEF741FF02B010BD4FF6FF7320884E
:102C5000A188104A00930023FEF736FF02B010BD92
:102C60004FF6FF732088A1880B4A00930023FEF7DC
:102C70002BFF02B010BD4FF6FF732088A188074AD2
:102C800000930023FEF720FF02B010BD5462000045
:102C9000086200001862000030620000406200001C
:102CA0000172FFF7A7BF00BF074A084808B5002117
:102CB000121A01F051FFAFF3008001F097FE00F00F
:102CC00037FF01F0F7FC00BF7C0400109C010010EE
:102CD000022801DC0120704700F0F2BEEFF305830B
:102CE00003B100BE01F0F4BEEFF3058303B100BEF3
:102CF00001F0F6BE08B5012001F0DCFC30B585B06E
:102D000018246D4620462946ABBE0446204605B031
:102D100030BD00BF024B186800F00100704700BFD3
:102D2000F0ED00E038B5054600F00EFA044600F07C
:102D30000BFA001BA842FAD338BD00BF4FF47A73D8
:102D400003FB00F0FFF7EEBF0FB400B5064A83B0F7
:102D500004AB53F8041B10681A46C068019302F0D4
:102D6000CDF8012001F0A6FC8001001000B599B05B
:102D700072B61749684600F04DF806A8154900F0EC
:102D800049F80CA8144900F045F812A8134900F0BE
:102D900041F8039A01990A9B11600799109A1960EA
:102DA0000D99159B1160139A96201A60FFF7C6FFC4
:102DB000049A0199099B116007990F9A19600D995E
:102DC000169B1160139A96201A60FFF7B7FFE0E791
:102DD00032C0092034C0092035C0092037C009207D
:102DE000014800F049B800BF84620000FFF792BFBD
:102DF00038B50D46044600F039F9013509D02046B2
:102E0000002100F055F92046BDE83840032100F0CC
:102E10004BB938BD38B50D46044600F027F90135E9
:102E20000CD02369626820461A60012100F040F945
:102E30002046BDE83840022100F036B938BD00BF59
:102E400070B50D461646044600F010F9013511D054
:102E500066B9236962681A602046012100F028F9EA
:102E60002046BDE87040022100F01EB9E3686268A8
:102E70001A60F1E770BD00BF036870B5DB680546F6
:102E800098476B685B6883B12A681C6853689847E9
:102E9000201A00286A680DDC506811688368536046
:102EA0000029F0D040688847EBE72B68BDE8704008
:102EB0009B6818472B6852681B691068BDE8704012
:102EC000184700BF431C10B5044618D00B68581CA7
:102ED00004D10FE051F80C3F5A1C0BD09C42F9D1A1
:102EE0002046896800F056F92046BDE810400221CE
:102EF00000F06CB90248BDE81040FFF725BF10BDD7
:102F00008C62000088420AD0421C09D0013106D0F0
:102F100008B50448FFF718FF4FF0FF3008BD7047B1
:102F200008467047A06200000B685A1C04D107E0F5
:102F300051F80C3F5A1C03D08342F9D148687047BE
:102F400018467047421C0ED008B50B685A1C04D1B5
:102F50000AE051F80C3F5A1C06D09842F9D1486853
:102F6000411C01D008BD70470248FFF7EDFE4FF04D
:102F7000FF30F7E7B46200000C4B30B49D689A68EC
:102F80002B46B2F1805F0CD2094AC43553F8044B8A
:102F9000AB4242F8044FF9D14FF080521346034C34
:102FA000A260103043F8201030BC704700ED00E004
:102FB000FCFFFF0F2B4A2023F0B4C2F8A031D2F857
:102FC000A031980645D4274B002519460124AA2094
:102FD000552202270B26C3F80471C3F8A851C3F881
:102FE000AC51C3F80C41C3F88460C3F88C00C3F83B
:102FF0008C20C3F88040C3F88C00C3F88C20D1F833
:103000008830184A5B01FAD511460324AA205523BB
:10301000C2F88040C2F88C00C2F88C30D1F88830F9
:10302000104A13F0407FF9D00F4900230520C2F861
:103030000801C2F8C410C2F8C8311368F0BC23F408
:10304000704323F03A0343F4405343F03A031360D0
:103050007047D2F8A0315906B5D4D2F8A03159063C
:10306000F7D5B0E700C00F40DE8728044A1C016096
:1030700018D038B50C4605460846002100F08AF8FD
:1030800024F01F0104F01F020123934001F11804F2
:1030900001F11C0001F11402A9606B60EC60286171
:1030A0006A6138BD704700BF006800F08FB800BF8C
:1030B00041B1012905D18268436811680B4313604F
:1030C0007047704782684168136823EA0103136000
:1030D000704700BF38B51249124B01241C60D1F86B
:1030E000C430114A43F4000310480025C1F8C4302D
:1030F0001567036801F1437101F5F45103319B0831
:10310000A1FB03139B0C013B022151600420D360FF
:1031100007495460FFF730FF064B10221A6038BD94
:1031200000C00F40080200100040094018010010C4
:10313000E12D000000E100E0024B1B6803B1704785
:10314000FFF7C8BF0802001008B5044B1B680BB995
:10315000FFF7C0FF024B986808BD00BF08020010CF
:1031600000400940034B98615A6942F001025A61DC
:10317000704700BF00400940024A536923F0010331
:103180005361704700400940014B01221A607047AB
:103190000040094000F16040A0F51C2003099B009D
:1031A00003F1804303F5303300F00F0010B440000A
:1031B0001C680322824024EA02021A601A688140D5
:1031C0000A431A605DF8044B704700BF00F160408D
:1031D000A0F51C2043099B0003F1804303F5303325
:1031E00030B400F01F029C6EC1F3800505FA02F2B4
:1031F00024EA02049C669C6E22439A6695B90309F0
:103200009B0003F1804303F5303300F00F001C6C8A
:1032100040000322824024EA02021A641A6C8140B0
:103220001143196430BC7047174B9968C1F34201D0
:10323000012918D0022914D1144A516F013106D046
:10324000D2F88010906F086092F8A61091B1106FBC
:103250000E4BB8B193F8A63023B10D4B00211B687B
:10326000184770477047094B186F0028FAD0084B71
:103270001B681847596821F001015960106F034B12
:103280000028E7D1704700BF0080094014020010F9
:103290001002001070B50368284CA34247D03FDDF0
:1032A000274CA34229D004F58044A34242D1254CA7
:1032B000082632BB01290BD04268234CC2EBC20264
:1032C00004EBC20292F8364030325279D44213D124
:1032D000B1FA81F45D68012202FA01F125EA0101E7
:1032E0005960036864095B6802FA04F1194203D16A
:1032F000164BB240C3F8802070BD154C0726002A3B
:10330000D8D05A68012505FA01F10A4376B25A600D
:1033100021463046FFF730FE0C4BB5401D6070BDB6
:10332000A4F58044A34205D10A4C0526C1E70A4C06
:103330000626BEE700242646BBE700BF000001408A
:10334000008009405D3300001402001000E100E03D
:1033500029320000D133000039340000194B99683C
:10336000C1F3420101291BD0022917D1164AD2F814
:10337000AC10013107D0D2F8B810D2F8B000086014
:1033800092F8DE10A1B1D2F8A8000F4BC8B193F8A3
:10339000DE3023B10D4B00211B6818477047704782
:1033A000094BD3F8A8000028F9D0084B1B68184730
:1033B000596821F001015960D2F8A800024B002899
:1033C000E5D1704700C0094014020010100200103F
:1033D000164B9968C1F34201012917D0022913D174
:1033E000134A5168013105D011699068086092F85C
:1033F000361091B110680E4BB8B193F8363023B146
:103400000C4B00211B68184770477047084B186821
:103410000028FAD0074B1B681847596821F00101B2
:1034200059601068024B0028E7D1704700C0004087
:103430001402001010020010164B9968C1F34201EB
:10344000012917D0022913D1134AD16B013105D0BC
:10345000916C106C086092F86E1091B1906B0E4BED
:10346000B8B193F86E3023B10C4B00211B6818479C
:1034700070477047084B986B0028FAD0074B1B68C1
:103480001847596821F001015960906B024B0028E0
:10349000E7D1704700000140140200101002001034
:1034A0002DE9F04F02686A4B89B09A420790069264
:1034B00000F0BC8040F3A780664B0698984200F06D
:1034C000898003F5804398420CD1634BD3F8AC213B
:1034D00022F44022C3F8AC21D3F8AC2142F480227C
:1034E000C3F8AC215D4A0B011268B2FBF3F003FB99
:1034F0001023039280B2002B00F08380039B4FF0D7
:1035000001085A009C009446A246C3468E4699463E
:103510000023049205940090029101930024254613
:10352000029E5FFA88F7BCF1000FB5BFBCFBF6F056
:10353000BAFBF6F0000940090130C0F34F0008EB78
:103540000402002854D1002C7ED00220034603FB45
:1035500002F3DB00B9FBF3F30133C1EB5303002BA0
:10356000B8BF5B42734505DA8B4246D09E46BB46E8
:103570008DE821000134E5B2BD420E44D3D3039B54
:1035800008F101089944049BB8F1100F9C44059B75
:103590009A44029B0B440293C0D1019B009843EADA
:1035A0000B15EDB20699C0F307220B7BC0B243F0B6
:1035B00080030B7307990B681A710B6818700B68FE
:1035C00083F828500A68137B03F07F03137309B054
:1035D000BDE8F08F204BD3F8AC2122F44032C3F881
:1035E000AC21D3F8AC2142F48032C3F8AC2179E7A6
:1035F000002CABD00128A9D8A7E745EA0715EDB202
:10360000D0E71025CEE7A3F580439A427FF46AAF56
:10361000114BD3F8A82122F0C002C3F8A821D3F897
:10362000A82142F04002C3F8A8215BE70A4BD3F877
:10363000A82122F44072C3F8A821D3F8A82142F4AB
:103640008072C3F8A8214DE7012003467FE700BF41
:10365000000001400080094000C00F401801001028
:103660000268137DDB07FCD543680949C3EBC3033C
:1036700001EBC303596810780131C0B206D0596913
:103680009B680B60536843F001035360704700BFB1
:10369000140200104368174AC3EBC303DB00D118C0
:1036A00010B4CC69013411D00B460A6B1C335B6833
:1036B00012681A4203D000205DF8044B704703687B
:1036C0005DF8044B187DC0F38010704703681B7DC4
:1036D0009B0608D491F834005DF8044B0F288CBF8A
:1036E000002001207047002381F8343001205DF86C
:1036F000044B70471402001038B504460D462046AE
:10370000FFF7C8FF0028FAD02368EDB21D70636888
:10371000054AC3EBC30302EBC30393F83420013221
:1037200083F8342038BD00BF140200102DE9F04F9B
:1037300004464648256883B085420F46914601936A
:1037400043D0D4F804A000255346414E4FEACA089E
:10375000C3EBC303CAEB080E002006EBCE0E4FF0FE
:10376000FF3B06EBC3030146024683F83500CEF863
:103770001CB02046CEF804B0FFF78CFD17B903B09B
:10378000BDE8F08F33494846FFF7CEFB3249834608
:103790000198FFF7C9FBBB1E012B37D9012FEED1D2
:1037A000B9F1FF3FEBD0294B226807219B451172ED
:1037B00013D195B148462B7C264943F040032B7426
:1037C00003B0BDE8F04FFFF77DBB2B7CD4F804A01D
:1037D00003F03F032B746368B7E7CAEB080806EBF6
:1037E000C8004946012504300022FFF729FB204686
:1037F0002A4663680021C3EBC30306EBC30686F8C1
:10380000355003B0BDE8F04FFFF744BD019B0133D5
:103810000AD00E4B98420DD0CAEB080006EBC00050
:1038200001991C30FFF7E4FA032FA8D1B9F1FF3F4B
:10383000B9D1A4E7002DEFD02B7C019843F0800391
:103840002B740549FFF73EFBEEE700BF0000014087
:1038500014020010F4620000F06300002DE9F04152
:1038600005460F46084659491646FFF76BFB58496F
:1038700004463046FFF766FB01462046FFF742FB51
:10388000544B0446984228607FD06FD9524B9842DF
:103890004BD003F58043984206D1504AD2F8C43049
:1038A00043F00073C2F8C430012323722B684FF039
:1038B0000008C3F8048028464FF41651FFF7F0FDC6
:1038C0002B6803221A7338464049FFF7FBFA30464B
:1038D0003F49FFF7F7FA7A1C03D038464146FFF715
:1038E00075FC731C03D030460021FFF76FFC394B89
:1038F0009C4247D021D9384B9C4263D003F580438A
:103900009C424AD103236B60354CC3EBC3034FF099
:10391000FF3604EBC3042846324633466660E66150
:103920000021BDE8F041FFF701BF2C4AD2F8C430B6
:1039300043F08073C2F8C430B6E7A3F580439C42DD
:103940002BD1274E4FF0FF340021696022462346D9
:1039500028467460F461FFF7E9FE224B01221A60E9
:1039600028686968204B03C3BDE8F081A3F5804354
:10397000984299D1194AD2F8C43043F00803C2F8EA
:10398000C43091E701236B60BEE7144AD2F8C4301B
:1039900043F01003C2F8C43086E76E68104BC6EBE4
:1039A000C6064FF0FF3703EBC6063A463B462846AD
:1039B00000217760F761FFF7B9FE0C4B9C42CCD039
:1039C000BDE8F08102236B609EE700BF84630000C6
:1039D00018630000000001400080094000C00F4053
:1039E000140200100C0200107004001000C000400F
:1039F00002480349034AFFF731BF00BF70040010BB
:103A000002C0092003C0092002280ADD074AC31E9C
:103A100052F82300002142F8231020B103685B68AC
:103A20001847002070474FF0FF307047F402001035
:103A3000022812DC0E4B70B51B680C4616460BB9FB
:103A4000FFF7D6FFA51936B114F8011B0948FFF797
:103A500053FEAC42F8D1304670BD074B033853F8E3
:103A6000200010B103681B6818474FF0FF30704703
:103A70000C02001070040010F402001002280DDC8B
:103A80000C4B10B51B680C460BB9FFF7B1FF0A4889
:103A9000FFF7E6FD01232070184610BD074B0338E1
:103AA00053F8200010B103689B6818474FF0FF33AC
:103AB000184670470C02001070040010F402001049
:103AC000022807DD064B033853F8200020B10368B5
:103AD000DB681847012070474FF0FF30704700BF88
:103AE000F4020010022807DD064B033853F82000CB
:103AF00020B103681B691847002070474FF0FF3062
:103B0000704700BFF4020010022808B504D84FF433
:103B100000534B60002008BD00F0C6FD0923036080
:103B20004FF0FF3008BD00BF704700BF704700BFB7
:103B300008B5FFF7FBFFFFF7F7FFBDE80840FCF70C
:103B4000C1BC00BF074A13681918EFF3088081420F
:103B500002D2184611607047034B0C221A604FF0D6
:103B6000FF3070471C010010780400100A4C08B5A3
:103B700023680546986800F05FFE2368D86800F067
:103B80005BFEFFF733F920B905B9FEE7FFF7EEF862
:103B9000FBE7FFF7B3F8F7E7800100100649074A93
:103BA000074B9A42BEBF51F8040B42F8040BF8E7EA
:103BB0000448804704480047B4640000C80000106F
:103BC0009C010010B52F0000A92C0000FEE7FEE7C5
:103BD000FEE7FEE7FEE7FEE7FEE7FEE7FEE7FEE7BD
:103BE00003460846194600F051BDFFF77DB810B5F1
:103BF000002814BF044601242046FFF76FF830B9AF
:103C000000F006F808B9FFF775F88047F4E710BD33
:103C1000024B1868BFF35F8F704700BFF4030010BA
:103C2000244B1A68D0075CBF01221A60224B1A6825
:103C3000D1075CBF01221A60204B1A68D2075CBF13
:103C400001221A601E4B1A68D0075CBF01221A605D
:103C50001C4B1A68D1075CBF01221A601A4B1A6804
:103C6000D2075CBF01221A60184B1A68D0075CBFEC
:103C700001221A60164B1A68D1075CBF01221A6034
:103C8000144B1A68D2075CBF01221A60124B1A68E3
:103C9000D0075CBF01221A60104B1A68D1075CBFC5
:103CA00001221A600E4B1A68D2075CBF01221A600B
:103CB000704700BF24040010200400101C040010F2
:103CC0001804001014040010100400100C0400105C
:103CD000080400100404001000040010FC0300108D
:103CE000F8030010244B1A68D0075CBF01221A6049
:103CF000224B1A68D1075CBF01221A60204B1A6858
:103D0000D2075CBF01221A601E4B1A68D0075CBF45
:103D100001221A601C4B1A68D1075CBF01221A608D
:103D20001A4B1A68D2075CBF01221A60184B1A6836
:103D3000D0075CBF01221A60164B1A68D1075CBF1E
:103D400001221A60144B1A68D2075CBF01221A6064
:103D5000124B1A68D0075CBF01221A60104B1A6818
:103D6000D1075CBF01221A600E4B1A68D2075CBFF4
:103D700001221A60704700BF540400105004001064
:103D80004C040010480400104404001040040010CB
:103D90003C040010380400103404001030040010FB
:103DA0002C0400102804001081F0004102E000BF44
:103DB00083F0004330B54FEA41044FEA430594EAEB
:103DC000050F08BF90EA020F1FBF54EA000C55EA26
:103DD000020C7FEA645C7FEA655C00F0E2804FEAF7
:103DE0005454D4EB5555B8BF6D420CDD2C4480EAD9
:103DF000020281EA030382EA000083EA010180EA09
:103E0000020281EA0303362D88BF30BD11F0004F56
:103E10004FEA01314FF4801C4CEA113102D040428C
:103E200061EB410113F0004F4FEA03334CEA1333C7
:103E300002D0524263EB430394EA050F00F0A780DF
:103E4000A4F10104D5F1200E0DDB02FA0EFC22FADA
:103E500005F2801841F1000103FA0EF2801843FACE
:103E600005F359410EE0A5F120050EF1200E012ABF
:103E700003FA0EFC28BF4CF0020C43FA05F3C018FD
:103E800051EBE37101F0004507D54FF0000EDCF176
:103E9000000C7EEB00006EEB0101B1F5801F1BD31F
:103EA000B1F5001F0CD349085FEA30004FEA3C0C23
:103EB00004F101044FEA445212F5800F80F09A8019
:103EC000BCF1004F08BF5FEA500C50F1000041EB1D
:103ED000045141EA050130BD5FEA4C0C404141EB21
:103EE000010111F4801FA4F10104E9D191F0000F48
:103EF00004BF01460020B1FA81F308BF2033A3F1CB
:103F00000B03B3F120020CDA0C3208DD02F1140CC1
:103F1000C2F10C0201FA0CF021FA02F10CE002F1FC
:103F20001402D8BFC2F1200C01FA02F120FA0CFCF5
:103F3000DCBF41EA0C019040E41AA2BF01EB04513E
:103F4000294330BD6FEA04041F3C1CDA0C340EDC3C
:103F500004F11404C4F1200220FA04F001FA02F37F
:103F600040EA030021FA04F345EA030130BDC4F13D
:103F70000C04C4F1200220FA02F001FA04F340EA32
:103F80000300294630BD21FA04F0294630BD94F0E3
:103F9000000F83F4801306BF81F480110134013DCA
:103FA0004EE77FEA645C18BF7FEA655C29D094EA3B
:103FB000050F08BF90EA020F05D054EA000C04BFB9
:103FC0001946104630BD91EA030F1EBF00210020A4
:103FD00030BD5FEA545C05D14000494128BF41F043
:103FE000004130BD14F580043CBF01F5801130BDA7
:103FF00001F0004545F0FE4141F470014FF0000032
:1040000030BD7FEA645C1ABF194610467FEA655CE2
:104010001CBF0B46024650EA013406BF52EA033584
:1040200091EA030F41F4002130BD00BF90F0000F72
:1040300004BF0021704730B54FF4806404F13204AE
:104040004FF000054FF0000150E700BF90F0000F67
:1040500004BF0021704730B54FF4806404F132048E
:1040600010F0004548BF40424FF000013EE700BF5E
:1040700042004FEAE2014FEA31014FEA02701FBFEE
:1040800012F07F4393F07F4F81F06051704792F0C0
:10409000000F14BF93F07F4F704730B54FF460743A
:1040A00001F0004521F0004120E700BF50EA010285
:1040B00008BF704730B54FF000050AE050EA010232
:1040C00008BF704730B511F0004502D5404261EBA2
:1040D00041014FF4806404F132045FEA915C3FF4E3
:1040E000DCAE4FF003025FEADC0C18BF03325FEA7C
:1040F000DC0C18BF033202EBDC02C2F1200300FA31
:1041000003FC20FA02F001FA03FE40EA0E0021FA55
:1041100002F11444C1E600BF70B54FF0FF0C4CF43F
:10412000E06C1CEA11541DBF1CEA135594EA0C0FF5
:1041300095EA0C0F00F0DEF82C4481EA030621EA30
:104140004C5123EA4C5350EA013518BF52EA03356B
:1041500041F4801143F4801338D0A0FB02CE4FF01D
:104160000005E1FB02E506F00042E0FB03E54FF04D
:104170000006E1FB03569CF0000F18BF4EF0010E45
:10418000A4F1FF04B6F5007F64F5407404D25FEA41
:104190004E0E6D4146EB060642EAC62141EA5551F4
:1041A0004FEAC52040EA5E504FEACE2EB4F1FD0C36
:1041B00088BFBCF5E06F1ED8BEF1004F08BF5FEAB4
:1041C000500E50F1000041EB045170BD06F0004666
:1041D00046EA010140EA020081EA0301B4EB5C0413
:1041E000C2BFD4EB0C0541EA045170BD41F480110B
:1041F0004FF0000E013C00F3AB8014F1360FDEBF30
:10420000002001F0004170BDC4F10004203C35DA0B
:104210000C341BDC04F11404C4F1200500FA05F38E
:1042200020FA04F001FA05F240EA020001F000422F
:1042300021F0004110EBD37021FA04F642EB0601A5
:104240005EEA430E08BF20EAD37070BDC4F10C04CF
:10425000C4F1200500FA04F320FA05F001FA04F293
:1042600040EA020001F0004110EBD37041F100017F
:104270005EEA430E08BF20EAD37070BDC4F120058A
:1042800000FA05F24EEA020E20FA04F301FA05F2F2
:1042900043EA020321FA04F001F0004121FA04F29A
:1042A00020EA020000EBD3705EEA430E08BF20EA6A
:1042B000D37070BD94F0000F0FD101F000464000A4
:1042C00041EB010111F4801F08BF013CF7D041EA26
:1042D000060195F0000F18BF704703F0004652002A
:1042E00043EB030313F4801F08BF013DF7D043EAFB
:1042F0000603704794EA0C0F0CEA135518BF95EAB1
:104300000C0F0CD050EA410618BF52EA4306D1D137
:1043100081EA030101F000414FF0000070BD50EA56
:10432000410606BF1046194652EA430619D094EAE0
:104330000C0F02D150EA013613D195EA0C0F05D1CA
:1043400052EA03361CBF104619460AD181EA03011E
:1043500001F0004141F0FE4141F470014FF00000D6
:1043600070BD41F0FE4141F4780170BD70B54FF071
:10437000FF0C4CF4E06C1CEA11541DBF1CEA1355F1
:1043800094EA0C0F95EA0C0F00F0A7F8A4EB0504D3
:1043900081EA030E52EA03354FEA013100F08880CA
:1043A0004FEA03334FF0805545EA131343EA126393
:1043B0004FEA022245EA111545EA10654FEA002648
:1043C0000EF000419D4208BF964244F1FD0404F501
:1043D000407402D25B084FEA3202B61A65EB03055D
:1043E0005B084FEA32024FF480104FF4002CB6EB1A
:1043F000020E75EB030E22BFB61A754640EA0C009A
:104400005B084FEA3202B6EB020E75EB030E22BFD9
:10441000B61A754640EA5C005B084FEA3202B6EB1A
:10442000020E75EB030E22BFB61A754640EA9C00D9
:104430005B084FEA3202B6EB020E75EB030E22BFA9
:10444000B61A754640EADC0055EA060E18D04FEA67
:10445000051545EA16754FEA06164FEAC30343EA07
:1044600052734FEAC2025FEA1C1CC0D111F4801FD4
:104470000BD141EA00014FF000004FF0004CB6E7CD
:1044800011F4801F04BF01430020B4F1FD0C88BF6C
:10449000BCF5E06F3FF6AFAEB5EB030C04BFB6EB77
:1044A000020C5FEA500C50F1000041EB045170BD6A
:1044B0000EF0004E4EEA113114EB5C04C2BFD4EB97
:1044C0000C0541EA045170BD41F480114FF0000E1B
:1044D000013C90E645EA060E8DE60CEA135594EA97
:1044E0000C0F08BF95EA0C0F3FF43BAF94EA0C0F9A
:1044F0000AD150EA01347FF434AF95EA0C0F7FF40F
:1045000025AF104619462CE795EA0C0F06D152EA62
:1045100003353FF4FDAE1046194622E750EA410646
:1045200018BF52EA43067FF4C5AE50EA41047FF457
:104530000DAF52EA43057FF4EBAE12E74FF0FF3CBC
:1045400006E000BF4FF0010C02E000BF4FF0010C8D
:104550004DF804CD4FEA410C7FEA6C5C4FEA430C06
:1045600018BF7FEA6C5C1BD001B050EA410C0CBF55
:1045700052EA430C91EA030F02BF90EA020F0020B7
:10458000704710F1000F91EA030F58BF994208BF1E
:1045900090422CBFD8176FEAE37040F001007047DB
:1045A0004FEA410C7FEA6C5C02D150EA013C07D132
:1045B0004FEA430C7FEA6C5CD6D152EA033CD3D07D
:1045C0005DF8040B704700BF8446104662468C4677
:1045D0001946634600E000BF01B5FFF7B7FF0028AA
:1045E00048BF10F1000F01BD4DF808EDFFF7F4FFD3
:1045F0000CBF012000205DF808FB00BF4DF808ED5E
:10460000FFF7EAFF34BF012000205DF808FB00BF80
:104610004DF808EDFFF7E0FF94BF012000205DF8A2
:1046200008FB00BF4DF808EDFFF7CEFF94BF012057
:1046300000205DF808FB00BF4DF808EDFFF7C4FF50
:1046400034BF012000205DF808FB00BF4A0011D2F2
:1046500012F5001211D20DD56FF47873B3EB6252DC
:104660000ED44FEAC12343F0004343EA505323FAE8
:1046700002F070474FF00000704750EA013002D15D
:104680004FF0FF3070474FF00000704738B50546D7
:1046900004480C46134620B1022029462246AFF3B7
:1046A000008038BD00000000014B1868704700BF53
:1046B0008001001008B5074B044613B10021AFF389
:1046C0000080054B1868836A03B198472046FFF7BE
:1046D0004DFA00BF00000000786400008A892DE9CF
:1046E000F041054610070C4657D44B68002B02DCFE
:1046F0000B6C002B18DDE66AB6B102F48052002381
:1047000092B22F682B600AB1626D10E0216A2846D0
:104710000123B047411C024609D12B683BB11D2B38
:1047200001D0162B46D12F600020BDE8F081A3896F
:104730005B0705D56368D21A636B0BB1236CD21A81
:10474000E66A00232846216AB047461CA38905D1A2
:104750002A681AB11D2A01D0162A19D100226260D6
:104760002269D904226004D5421C01D12B6803B907
:104770006065616B2F600029D6D004F14403994233
:1047800002D0284600F0F0F900206063BDE8F08117
:1047900043F04003A381BDE8F0810F69002FC3D02F
:1047A00093070E680CBF4B690023C7EB06080F6028
:1047B0008B6012E0A3894FF0FF3043F04003A381E8
:1047C000BDE8F0812846216A3A464346A66AB047CA
:1047D0000028EFDD0744C0EB0808B8F1000FF1DC5A
:1047E000A2E7000038B50B6905460C46DBB118B1ED
:1047F00083690BB900F072F80C4B9C4201D16C68D4
:1048000008E00B4B9C4201D1AC6803E0094B9C4291
:1048100008BFEC68B4F90C302BB128462146BDE83E
:104820003840FFF75BBF002038BD00BF14640000B4
:104830003464000054640000014620B9044B05496B
:10484000186800F0B5B8044B1868FFF7CBBF00BF7D
:1048500078640000E547000080010010014900F085
:10486000A7B800BFE547000010B504460023036069
:104870004360836081814366C281036143618361D8
:1048800019465C30082200F067F9054B2462636228
:10489000044BA362044BE362044B236310BD00BFCF
:1048A000DD530000FF530000375400005B5400004C
:1048B00070B568234D1E5D430E4605F1740100F08E
:1048C00097F9044640B1002180E842000C30A06016
:1048D00005F1680200F040F9204670BD836910B50B
:1048E000044633BB8364C3640365124B124A1B68DE
:1048F0008262984204BF0123836100F01FF8606068
:10490000204600F01BF8A060204600F017F80421B4
:10491000E06000226068FFF7A7FFA068092101227C
:10492000FFF7A2FFE06812210222FFF79DFF01239B
:10493000A36110BD786400005D480000F8B51B4B12
:1049400007461E68B36913B93046FFF7C7FF4836FC
:10495000B4687368013B04D4B4F90C5075B1683481
:10496000F8E733682BB938460421FFF7A1FF306020
:1049700008B13668ECE70C233B60F8BD4FF6FF73D7
:10498000E3810123A38165662560A56065602561DB
:104990006561A56104F15C002946082200F0DCF89D
:1049A0006563A563A564E5642046F8BD78640000EE
:1049B0002DE9F8438046894600F14804002694B169
:1049C000A5686768013F0CD4AB89012B07D9B5F9FD
:1049D0000E30013303D040462946C84706436835A8
:1049E000F0E72468EBE73046BDE8F8830E4B70B57E
:1049F0001E460E4C0025E41AA410A54204D056F819
:104A0000253098470135F8E700F0D8FF084B094CEE
:104A10001E46E41AA4100025A54204D056F82530FD
:104A200098470135F8E770BD84010010840100103B
:104A30008401001098010010F0B58B8991B09D079A
:104A400006460C4625D4B1F90E10002908DAA389D0
:104A5000002513F0800F14BF40274FF480670DE04E
:104A600001AA00F0E9FD0028F1DB029D4FF4806708
:104A700005F47045A5F500514D424D41304639468B
:104A800000F0B6F860B9A3899A051DD443F002037B
:104A9000A38104F14703236023610123636113E0D1
:104AA0000A4BB362A389206043F08003A381206195
:104AB00067614DB13046B4F90E1000F0CFFD18B16A
:104AC000A38943F00103A38111B0F0BD5D4800004C
:104AD000024B0146186800F08BB800BF800100103F
:104AE000024B0146186800F03FB800BF800100107B
:104AF00010B5C9B202449042034605D01C7801307B
:104B00008C42F8D1184610BD002010BD10B5431ED0
:104B10000A44914204D011F8014B03F8014FF8E721
:104B200010BD814210B501EB020301D3421E0BE020
:104B30009842FBD28118D21AD34204D013F8014D07
:104B400001F8014DF8E710BD994204D011F8014B6E
:104B500002F8014FF8E710BD03460244934202D029
:104B600003F8011BFAE7704730B500293CD051F833
:104B7000042C0B1F1D49002AB8BF9B180A680C465D
:104B800012B95A600B6030BD93420DD219685818A3
:104B9000904201BF5A5852181A60426823605A6006
:104BA00030BD994203D80A4651680029F9D11468EA
:104BB00015199D420AD11B682344D01888421360FE
:104BC00012D10868034413604B680CE002D90C232F
:104BD000036030BD1C681819884201BF0868496825
:104BE000001918605960536030BD00BF5C040010AC
:104BF00070B5CC1C24F0030408340C2C38BF0C24F2
:104C0000002C064603DA0C233360002070BD8C4272
:104C1000F9D3204A136810461946A1B10A68121B3D
:104C20000ED40B2A03D90A608B188C501FE08B42DC
:104C30000BBF5A684A6802605A6018BF0B4616E0FC
:104C40000B464968E9E7144D2B681BB9304600F064
:104C500091FB28603046214600F08CFB421C034645
:104C6000D1D0C51C25F0030585420AD11C6003F193
:104C70000B001A1D20F00700821A0AD051429950E9
:104C800070BD3046E91A00F075FB0130BBD02B46F1
:104C9000ECE770BD5C04001058040010936810B578
:104CA000013B002B936009DA9469A34202DBCBB28B
:104CB0000A2B03D1BDE8104000F0DCBB1368581C80
:104CC00010601970C8B210BDF8B506460F461446FC
:104CD000D518AC4208D0304614F8011B3A46FFF70D
:104CE000DDFF431CF5D100E00020F8BD2DE9F043C5
:104CF0009DB00D4690460393064618B183690BB9E3
:104D0000FFF7ECFD754B9D4201D1756808E0744BCF
:104D10009D4201D1B56803E0724B9D4208BFF56822
:104D2000AB891C070AD52B6943B1002309932023C3
:104D30008DF8293030238DF82A3041E0304629465D
:104D400000F0FEFB0028F0D04FF0FF30C2E0039AE5
:104D50000134111D12680391002ABBBF524243F077
:104D6000020307920792B8BF049323782E2B7BD0BF
:104D7000DFF88081217840460322FFF7B9FE38B181
:104D8000049AC8EB0000402383401343049301348A
:104D900021785548062204F101088DF82810FFF704
:104DA000A7FE002800F08580504B002B78D1039B94
:104DB000073323F0070308330393099B3B4409930C
:104DC00043461C4613F8012B1AB9B4EB08090ED060
:104DD00002E0252AF5D1F8E73046294642464B46FF
:104DE000FFF772FF013070D0099B4B440993237881
:104DF000002B6AD000234FF0FF32049307930592F3
:104E000006938DF853301A9304F101084446DFF8F5
:104E1000E890217848460522FFF76AFE08F101086C
:104E2000049B30B1C9EB000001228240134304937C
:104E3000ECE7D80644BF20228DF85320190744BF61
:104E40002B228DF8532022782A2A80D023460799D6
:104E50001C4622780133303A092A03D80A2000FB85
:104E60000121F5E7079180E763782A2B0AD1039B9C
:104E700002341A1D1B680392002BB8BF4FF0FF339A
:104E8000059375E7611C00220C4623780131303B05
:104E9000092B03D80A2000FB0232F5E7059267E7E9
:104EA00003AB0093304604A92A46114BAFF30080B0
:104EB00007E003AB0093304604A92A460C4B00F0F0
:104EC000A1F8421C07467FF478AFAB895B063FF53B
:104ED0003BAF09981DB0BDE8F08300BF146400002B
:104EE0003464000054640000866400000000000088
:104EF000C94C0000826400007C64000030B50546A7
:104F00000C461346034A294610682246BDE8304045
:104F1000FFF7ECBE800100102DE9F84391461F46D3
:104F20008A680B6906469342B8BF1346C9F8003039
:104F300091F843200C46DDF8208012B10133C9F806
:104F400000302368990642BFD9F800300233C9F80F
:104F50000030256815F006051CD094F8433022680F
:104F6000003318BF012392061FD5E118302081F8C5
:104F700043005A1C94F845102244023382F843102F
:104F800013E03046394604F119020123C0470130CD
:104F900007D00135E368D9F800209B1A9D42F0DB69
:104FA000DBE74FF0FF30BDE8F8833046394604F1C7
:104FB0004302C0470130F4D02268D9F80050E368BA
:104FC00002F00602042A08BF5D1B2269A3680CBF19
:104FD00025EAE57500259342C4BF9B1AED184FF0F2
:104FE0000009A9450ADA3046394604F11A020123BC
:104FF000C0470130D5D009F10109F2E70020BDE832
:10500000F88300002DE9FF410C461746227E9846A2
:105010006E2A06460A9B01F1430100F0B08012D8C7
:10502000632A23D00AD8002A00F0BD80582A40F015
:10503000CC8084F84520DFF804E257E0642A1ED0D3
:10504000692A1CD0C1E0732A00F0B18009D86F2A08
:105050002ED0702A40F0B980226842F020022260EF
:105060003FE0752A24D0782A3BD0AEE01A6804F1DC
:105070004205111D1960136884F84230A9E02068C8
:105080001A6810F0800F02D0101D186008E010F0B0
:10509000400F02F10400186002D0B2F9003000E0C5
:1050A0001368002B3EDA2D225B4284F8432039E05E
:1050B00020681A6810F0800F02D0101D186007E0F9
:1050C00010F0400F02F10400186001D0138800E0D6
:1050D0001368227EDFF864E16F2A0CBF08220A22DF
:1050E0001CE07822DFF858E184F84520226818682F
:1050F00012F0800F00F104051D6003D1550601D5A3
:10510000038800E00368D00744BF42F02002226019
:105110001BB9226822F0200222601022002084F8AD
:10512000430002E0DFF814E10A226568002DA8BF01
:105130002068A560A4BF20F00400206003B965B119
:105140000D46B3FBF2F002FB10331EF8033005F8F6
:10515000013D03460028F4D100E00D46082A0BD19A
:105160002368DA0708D5236962689A42DEBF3023D4
:1051700005F8013C05F1FF35491B21612EE025684A
:105180001A6815F0800F606903D0151D1D60136843
:1051900008E015F0400F02F104051D60136801D00E
:1051A000188000E01860002323610D4616E01A689D
:1051B000111D19601568002128466268FFF798FCE8
:1051C00008B1401B6060636804E004F1420584F8A4
:1051D000422001232361002384F84330CDF800806E
:1051E0003046214603AA3B46FFF796FE013002D126
:1051F0004FF0FF301FE0304639462A462369C0474A
:105200000130F5D023689B0705D4E068039B9842E2
:10521000B8BF18460FE00025E368039A9B1A9D4229
:10522000F3DA3046394604F119020123C047013050
:10523000DED00135F0E704B0BDE8F0818D640000F8
:105240009E6400000FB40A4B13B51C6824B1A36917
:1052500013B92046FFF742FB05AB2046A168049A2C
:105260000193FFF743FD02B0BDE8104004B0704762
:105270008001001070B50E46054618B183690BB960
:10528000FFF72CFBAB69AC6813B92846FFF726FB88
:10529000314B9C4201D16C6808E0304B9C4201D1FB
:1052A000AC6803E02E4B9C4208BFEC68A389190749
:1052B00001D5236983B92846214600F041F958B148
:1052C0004FF0FF3070BD002B0EDB236816F8012C69
:1052D0001A70236801332360A36816F8012B013B81
:1052E000A360002AEFD116E0A269934209DB23688C
:1052F00016F8012C1A70236819780A29EAD1284671
:1053000002E0284616F8011C224600F0B3F8421CC1
:1053100050425041D3E7002B15DAA269934208DBD3
:1053200023680A221A702368197891420FD12846FF
:1053300001E028460A21224600F09CF8431C58420E
:10534000584130B1BCE723680A221A702368013340
:1053500023600A2070BD00BF1464000034640000A4
:1053600054640000024B01461868FFF783BF00BF7A
:105370008001001038B5064C00230546084623601E
:10538000FEF7E0FB431C02D1236803B12B6038BD5C
:10539000780400100EB400B54FF402719CB0ADF863
:1053A00014106FF00041049107914FF6FF711DAB8F
:1053B000ADF81610084953F8042B029006900868BF
:1053C00002A9019300F0ECF9029B00221A701CB0B4
:1053D0005DF804EB03B070478001001010B50C4677
:1053E000B1F90E1000F0CEFA0028ABBF636DA389AF
:1053F0001B1823F48053ACBF6365A38110BD2DE956
:10540000F0411D468B890746DB050C46164605D53F
:10541000B1F90E100022022300F030F9A3893846BA
:1054200023F48053A381B4F90E1032462B46BDE815
:10543000F04100F073B810B50C46B1F90E1000F051
:105440001DF9431CA38915BF606523F4805343F401
:105450008053A38118BFA38110BDB1F90E1000F0D5
:10546000DBB8034613F8012B002AFBD1181A0138C8
:105470007047000070B50D461446064618B18369A2
:105480000BB9FFF72BFA224B9C4201D1746808E05C
:10549000204B9C4201D1B46803E01F4B9C4208BFE3
:1054A000F468A369A360A3891A0709D523693BB1EE
:1054B00023682069EDB2181A636998420FDB08E08F
:1054C0003046214600F03CF80028F1D04FF0FF3084
:1054D00070BD30462146FFF785F90028F6D1A36854
:1054E0000130013BA36023685A1C22601D70636970
:1054F000984204D0A389DB0707D50A2D05D1304691
:105500002146FFF76FF90028E0D1284670BD00BFA3
:1055100014640000346400005464000038B5074C83
:10552000054600202060084611461A46FEF780FA1C
:10553000431C02D1236803B12B6038BD78040010EE
:10554000314B70B51D6806460C4625B1AB6913B9E1
:105550002846FFF7C3F92D4B9C4201D16C6808E047
:105560002B4B9C4201D1AC6803E02A4B9C4208BF04
:10557000EC68A3899AB211071DD4D50602D409227A
:10558000326038E0500712D5616B41B104F1440339
:10559000994202D03046FFF7E7FA00236363A389FC
:1055A00023F02403A3810023636023692360A3897C
:1055B00043F00803A38123694BB9A38903F4207343
:1055C000B3F5007F03D030462146FFF735FAA389B3
:1055D00013F0010205D00022A26062695242A2616A
:1055E00003E0990758BF6269A26022694AB903F0D3
:1055F000800080B230B143F04003A3814FF0FF3010
:1056000070BD002070BD00BF800100101464000058
:10561000346400005464000038B5064C002305468D
:1056200008462360FEF7F0F9431C02D1236803B15A
:105630002B6038BD7804001038B5074C00230546B0
:10564000084611462360FEF75FFA431C02D1236827
:1056500003B12B6038BD00BF7804001038B5064C8C
:105660000023054608462360FDF732FB431C02D1A8
:10567000236803B12B6038BD7804001038B5074C9F
:10568000054600202060084611461A46FEF72AFA11
:10569000431C02D1236803B12B6038BD780400108D
:1056A000F8B5074615460E4621B91146BDE8F84043
:1056B000FFF79EBA1AB9FFF757FA2846F8BD00F06F
:1056C00073F9A8420ED238462946FFF791FA0446EC
:1056D00050B131462A46FFF719FA38463146FFF7EE
:1056E00043FA01E03046F8BD2046F8BD2DE9F04709
:1056F0008E688246B3420C469046994640D38A89CA
:1057000012F4906F3AD02568096902236F1A65690F
:1057100005EB450595FBF3F57B1C4B449D4238BFDB
:105720001D4653050FD52946FFF762FA064698B184
:1057300021693A46FFF7EAF9A38923F4906343F01D
:105740008003A38113E02A46FFF7AAFF064670B93B
:1057500050462169FFF708FA0C23CAF80030A389E4
:105760004FF0FF3043F04003A381BDE8F08726618E
:105770003E4426604E466561ED1BA560B14500D2F2
:105780004E46324620684146FFF7CBF9A368002019
:105790009B1BA36023681E442660BDE8F0870000C1
:1057A0002DE9F0439DB003938B8906461C060D46F8
:1057B00090460CD50B6953B94021FFF719FA2860C0
:1057C000286110B90C233360CCE040236B610023C7
:1057D000099320238DF8293030238DF82A30434651
:1057E0001C4613F8012B1AB9B4EB08090FD002E0DC
:1057F000252AF5D1F8E73046294642464B46FFF7C1
:1058000075FF013000F0A980099B4B440993237870
:10581000002B00F0A28000234FF0FF320493079387
:10582000059206938DF853301A9304F1010844460B
:10583000DFF84891217848460522FFF759F908F129
:105840000108049B30B1C9EB0000012282401343E0
:105850000493ECE7D80644BF20228DF853201907A3
:1058600044BF2B228DF8532022782A2A02D0079990
:1058700023460EE0039A0134111D12680391002A99
:10588000BBBF524243F0020307920792B8BF049392
:105890000AE01C4622780133303A092A03D80A204C
:1058A00000FB0121F5E7079123782E2B1AD16378AD
:1058B0002A2B0AD1039B02341A1D1B680392002B6A
:1058C000B8BF4FF0FF3305930CE0611C00220C467B
:1058D00023780131303B092B03D80A2000FB023228
:1058E000F5E70592DFF89880217840460322FFF71C
:1058F000FFF838B1049AC8EB0000402383401343FB
:105900000493013421781A48062204F101088DF825
:105910002810FFF7EDF888B1164B33B9039B073316
:1059200023F007030833039313E003AB00933046DF
:1059300004A92A46104BAFF3008007E003AB0093A5
:10594000304604A92A460C4BFFF75CFB421C074675
:1059500003D0099B3B44099341E7AB895B0601D423
:10596000099801E04FF0FF301DB0BDE8F08300BFA3
:105970008664000000000000ED5600007C6400001A
:105980008264000038B5074C0546002020600846B8
:1059900011461A46FEF772F8431C02D1236803B180
:1059A0002B6038BD7804001051F8040C0028BEBFED
:1059B000091851F8043CC01804387047F8B500BF06
:1059C000F8BC08BC9E467047F8B500BFF8BC08BCE0
:1059D0009E4670477265636F6E6669677572696E21
:1059E0006720535350000000696E207464635F6D3C
:1059F0006561737572650000636F6E666967323A40
:105A00002025780A00000000696E745F6D61736B79
:105A10003A2025780A0000007374617274696E6719
:105A2000206D6561737572656D656E7400000000B0
:105A300067657474696E6720726573756C74730042
:105A400063616C63756C6174696E672074696D6500
:105A5000000000006265666F726520746F75636890
:105A600028292000616674657220746F7563682848
:105A700029200000000000000000000000000000DD
:105A800000000000000000183C3C3C1818001818EA
:105A900000000000000000666666000000000000D4
:105AA0000000000000000036367F3636367F36367E
:105AB000000000000018183C666030180C06663CB8
:105AC00018180000000070D8DA760C18306E5B1BD6
:105AD0000E000000000000386C6C38606F66663B9A
